S0160000426F6F746C6F616465725F6231312E73726563E0
S3150000000000700020010000105D0000105D0000106F
S315000000105D0000105D0000105D0000100000000093
S315000000200000000000000000000000005D0000105D
S315000000305D000010000000005D0000105D00001073
S315000000405D0000105D0000105D0000105D000010F6
S315000000505D0000105D0000105D0000105D000010E6
S315000000605D0000105D0000105D0000105D000010D6
S315000000705D0000105D0000105D0000105D000010C6
S315000003F05D0000105D0000105D000010FFFFFFFFB4
S31500000400FFFFFFFFFFFFFFFFFFFFFFFFFE7FFFFF77
S3151000000072B610490F4A0F4B0E4C0E4D0D4E0D4F3A
S31510000010B846B946BA46BB46BC460B490B4A521AB5
S31510000020013A05DD0020042308601944043AFBDA7E
S3151000003007488546074880470748804762B600F05C
S315100000400FF8FEE7000000000080FF1F0070002080
S3151000005000700020A50F0010D50F0010FFF7FEBF8F
S3151000006001F0FAF801F008F909480A4A0021121AB3
S3151000007001F060F801F026F901F0A0F801F0FEF8A1
S315100000800549002000F00AF801F038F8FEE700BF35
S3151000009000000020580400200000002080B582B027
S315100000A000AF00F061FF00F06DFC00F033F900F0D6
S315100000B085FC0346FB71FB79002B04D0144B0122FF
S315100000C01A7000F097FC00F02BF90346002B0CBFBA
S315100000D001230023DAB20E4B1B78002B0CBF012331
S315100000E00023DBB21340DBB2002BE0D100F038F96D
S315100000F000F058FC00F048FF4FF400531A6842F223
S3151000010004031B681046194600F004F8FEE700BF0A
S315100001100400002080B483B000AF786039607B683B
S31510000120B3F1FF3F00D10AE080F3088880F3098815
S315100001304FF0E0234FF40052C3F8082D8F460C37CA
S31510000140BD465DF8047B704780B483B000AF78601D
S315100001507B685B6903F480039B0DDBB218460C3792
S31510000160BD465DF8047B704780B483B000AF7860FD
S315100001707B685B6903F400135B0DDBB218460C3722
S31510000180BD465DF8047B704780B487B000AFF86059
S31510000190B9607A60FB68294A934208D1284A284BED
S315100001A0D3F8A83143F08643C2F8A83118E0FB68AB
S315100001B0244A934208D1224A214BD3F8AC3143F05A
S315100001C08643C2F8AC310BE0FB681F4A934207D155
S315100001D01B4A1B4BD3F8B03143F08643C2F8B031FB
S315100001E0FB689B6923F44022FB689A61FB689B6954
S315100001F023F0404323F40163FA689361FB681B699B
S3151000020043F07062FB681A61BA687B68B2FBF3F35D
S315100002101B09FB82FB681A69FB8AC3F30C031A439A
S31510000220FB681A61FB689B6943F44022FB689A617C
S315100002301C37BD465DF8047B704700BF00A0064022
S315100002400050064000B0064000C0064080B483B09F
S3151000025000AF78607B6800229A617B6800221A6181
S315100002600E4A0E4BD3F8A83123F08043C2F8A831BA
S315100002700A4A0A4BD3F8AC3123F08043C2F8AC31AA
S31510000280064A064BD3F8B03123F08043C2F8B0319A
S315100002900C37BD465DF8047B704700BF0050064022
S315100002A080B483B000AF786000BF7B685B6903F4ED
S315100002B000135B0D002BF8D07B68DB69DBB21846A8
S315100002C00C37BD465DF8047B704700BF80B483B021
S315100002D000AF78600B46FB7000BF7B685B6903F468
S315100002E00003DB0D002BF8D0FA787B68DA610C3747
S315100002F0BD465DF8047B704780B582B000AF78606C
S3151000030000BF7868FFF720FF0346002BF9D00837A7
S31510000310BD4680BD80B500AF00F028F880BD00BF97
S3151000032080B582B000AF00F05DF80346FB71FB7933
S31510000330002B04D0094B1B680133084A1360074B86
S315100003401B68042B01D8002303E0044B00221A601B
S31510000350012318460837BD4680BD00BF080000209F
S3151000036080B500AF00F020F880BD00BF80B400AFAC
S315100003700A4B4FF08642C3F8DC20094A084B9B68AB
S3151000038043F001039360064B064A1A62044B01229E
S315100003909A62BD465DF8047B704700BF0050064068
S315100003A000700340006CDC0280B400AF0B4B0022DF
S315100003B09A620A4B00221A62084A084B9B6823F07D
S315100003C001039360064A064BD3F8DC3023F08043D2
S315100003D0C2F8DC30BD465DF8047B70470070034000
S315100003E00050064080B483B000AF0B4BDB68DBB225
S315100003F003F00103FB71FB79002B05D0064A064B6F
S31510000400DB6843F00103D360FB7918460C37BD4611
S315100004105DF8047B704700BF0070034080B400AFE6
S315100004200B4A0B4BD3F82C3143F08043C2F82C31D6
S31510000430084A084B9B6943F400739361054A054BC0
S31510000440DB6943F40073D361BD465DF8047B7047E6
S315100004500050064000B0044080B400AF0B4A0B4B6E
S31510000460D3F82C3143F08043C2F82C31084A084B9C
S315100004709B6943F480739361054A054BDB6943F42A
S315100004808073D361BD465DF8047B7047005006400B
S3151000049000B0044090B58BB002AF78600023BB610A
S315100004A0524B1B78002B06D15148524900F036F9B1
S315100004B04E4B01221A707B681B78332B1CD17B683C
S315100004C05B789BB2053BFB837B6820337B617B6942
S315100004D01B681A067B691B6803F47F431B021A43C9
S315100004E07B691B6803F47F031B0A1A437B691B682D
S315100004F01B0E1343BB613EE07B681B78322B1DD16C
S315100005007B685B789BB2043BFB837B6820333B6143
S315100005103B691B681A063B691B6803F47F431B0281
S315100005201A433B691B6803F47F031B0A1A433B6992
S315100005301B681B0E13431B0ABB611CE07B685B78B0
S315100005409BB2033BFB837B682033FB60FB681B6815
S315100005501A06FB681B6803F47F431B021A43FB68E9
S315100005601B6803F47F031B0A1A43FB681B681B0EE8
S3151000057013431B0CBB61BB69B3F5005F33D3BB6977
S31510000580C3F30B03002B0AD11A48B9694FF48052F2
S31510000590194B00F0FDF8194ABB69136018E0174BA8
S315100005A01B6803F58052BB699A4211D2BB69C3F32B
S315100005B00B03BB60BA69BB68D31ABB600D48B96838
S315100005C04FF480520C4B00F0E3F80C4ABB681360F2
S315100005D0FA8B7B6803F14004074B00930548B96911
S315100005E0234600F04DF92437BD4690BD0C0000207F
S315100005F0EC120010280000200184FF1F10000020BC
S3151000060080B400AFBD465DF8047B704780B483B0FC
S3151000061000AF78600B46FB70FB78002B04D17B682B
S315100006204FF48032DA6074E0FB78012B04D17B68DA
S315100006304FF0FF32DA606CE0FB78022B04D17B6856
S315100006404FF0FF32DA6064E0FB78032B04D17B684D
S315100006504FF40042DA605CE0FB78042B03D17B6830
S315100006600022DA6055E0FB78052B04D17B684FF049
S31510000670FF32DA604DE0FB78062B04D17B684FF031
S31510000680FF32DA6045E0FB78072B04D17B684FF028
S31510000690FF32DA603DE0FB78082B03D17B6800223D
S315100006A0DA6036E0FB78092B04D17B684FF0FF3215
S315100006B0DA602EE0FB780A2B04D17B684FF4804277
S315100006C0DA6026E0FB780B2B04D17B684FF40042EE
S315100006D0DA601EE0FB780C2B04D17B684FF4803275
S315100006E0DA6016E0FB780D2B04D17B684FF0FF32F1
S315100006F0DA600EE0FB780E2B04D17B684FF0FF32E8
S31510000700DA6006E0FB780F2B03D17B684FF480325A
S31510000710DA600C37BD465DF8047B704780B584B04F
S3151000072000AF786039600023FB817B681A683B68EC
S315100007301A607B685A683B685A607B689A683B689F
S315100007409A607B68DA683B681A617B681A693B684D
S315100007509A610E4BDB6C03F470431B0B7B737B7B34
S3151000076038681946FFF752FF3B68DB68B3F5803FE0
S3151000077004D23B684FF480525A6102E03B68002273
S315100007805A61FB8918461037BD4680BD008004406B
S3151000079080B588B000AFF860B9607A603B6000231E
S315100007A0FB837B687B61FB689B683B61BA683B692E
S315100007B09A4210D3FB68DA683B691A44BB689A42BE
S315100007C009D9BA683B69D31A03F50003BB604FF425
S315100007D00063BB611BE0FB681B683B61BA683B6941
S315100007E09A420ED3FB685A683B691A44BB689A4210
S315100007F007D9BA683B69D31ABB604FF48053BB6103
S3151000080005E02023FB8300237B610023BB61BB69CA
S315100008105A1E7B691340002B02D04FF40053FB8302
S3151000082020E0164B70221A70144B0922DA71134A03
S31510000830BB681B0CDBB29371104ABB681B0ADBB298
S3151000084053710E4BBA68D2B21A713B68F868984762
S315100008500346FB837A69BB69D31A7B61BA68BB69A5
S315100008601344BB607B69002B02D0FB8B002BD8D0C6
S31510000870FB8B18462037BD4680BD00BF00000240E6
S3151000088080B586B000AFF860B9607A603B6000232F
S31510000890FB827B6803F00703002B03D04FF4005351
S315100008A0FB8265E0FB689B683B61BA683B699A42CC
S315100008B00DD3FB68DA683B691A44BB689A4206D9BD
S315100008C0BA683B69D31A03F50003BB6014E0FB68F2
S315100008D01B683B61BA683B699A420BD3FB685A683E
S315100008E03B691A44BB689A4204D9BA683B69D31A61
S315100008F0BB6001E02023FB8234E0204B70221A708B
S315100009001E4B0722DA711D4ABB681B0CDBB29371B2
S315100009101A4ABB681B0ADBB25371184BBA68D2B2BB
S315100009201A7100237B750CE07A7D154B13443B61DD
S315100009303B697A7D39680A4412781A707B7D0133D7
S315100009407B757B7D072BEFD93B6AF8689847034682
S31510000950FB82BB680833BB607B68083B7B603B68E7
S3151000096008333B607B68002B02D0FB8A002BC4D077
S31510000970FB8A18461837BD4680BD00BF00000240EE
S315100009800800024080B500AFFFF748FD0348044950
S315100009904FF49642FFF7F8FB80BD00BF00B006404B
S315100009A000366E0180B500AFFFF756FD0248FFF71F
S315100009B04DFCFFF725FE80BD00B0064080B582B025
S315100009C000AF0023FB710948FFF7CEFB0346FB710E
S315100009D0FB79002B04D0064B01221A70FB7900E03C
S315100009E0002318460837BD4680BD00BF00B006403C
S315100009F01400002090B589B000AFA8B06B461F3325
S31510000A005B095C010023FB610023FB76204600F0A6
S31510000A10EFF8204600F0FEF80346BB76BB7E412B6E
S31510000A2040F0D9802378312B0CBF01230023DAB292
S31510000A302378322B0CBF01230023DBB21343DBB226
S31510000A401A462378332B0CBF01230023DBB2134342
S31510000A50002B06D02046FFF71DFDFB690133FB6115
S31510000A60B6E02378352B0CBF01230023DAB22378A6
S31510000A70362B0CBF01230023DBB21343DBB2002B52
S31510000A803AD000237B612378352B18D104F120034B
S31510000A903B613B691B681A063B691B6803F47F437D
S31510000AA01B021A433B691B6803F47F031B0A1A4394
S31510000AB03B691B681B0E13431B0C7B611BE02378E1
S31510000AC0362B18D104F12003FB60FB681B681A064D
S31510000AD0FB681B6803F47F431B021A43FB681B6801
S31510000AE003F47F031B0A1A43FB681B681B0E134390
S31510000AF01B0A7B616CE06BE02378372B0CBF01235C
S31510000B000023DAB22378382B0CBF01230023DBB283
S31510000B101343DBB21A462378392B0CBF012300236B
S31510000B20DBB21343002B53D02378392B19D104F1A0
S31510000B302003BB60BB681B681A06BB681B6803F4FE
S31510000B407F431B021A43BB681B6803F47F031B0A0F
S31510000B501A43BB681B681B0E13431B0C234A1360F6
S31510000B6034E02378382B19D104F120037B607B689D
S31510000B701B681A067B681B6803F47F431B021A4323
S31510000B807B681B6803F47F031B0A1A437B681B6888
S31510000B901B0E13431B0A154A136017E004F12003BA
S31510000BA03B603B681B681A063B681B6803F47F436F
S31510000BB01B021A433B681B6803F47F031B0A1A4384
S31510000BC03B681B681B0E1343084A13600123FB7610
S31510000BD000F0DAF801E000F0E9F8FB7E002B3FF4B4
S31510000BE015AF00F0F5F82437BD4690BD180000206B
S31510000BF080B582B000AF7860054B1B78012B00D012
S31510000C0003E0786800F0F4F800BF0837BD4680BDF1
S31510000C101400002080B485B000AF78600023FB601C
S31510000C200023FB7200237B727B681B782F2B03D962
S31510000C307B681B78392B01D945239FE07B685B784D
S31510000C40252B01D9452399E07B685B78FB72FB7AEB
S31510000C50FA681344FB607B681B78322B0CBF0123A8
S31510000C600023DAB27B681B78362B0CBF01230023D6
S31510000C70DBB21343DBB21A467B681B78382B0CBFEA
S31510000C8001230023DBB21343002B15D00023BB72C4
S31510000C900BE0BB7A7A68134493F820301A46FB6847
S31510000CA01344FB60BB7A0133BB72BB7A022BF0D9BB
S31510000CB0FB7A033BFB723CE07B681B78332B0CBF43
S31510000CC001230023DAB27B681B78372B0CBF012374
S31510000CD00023DBB21343DBB2002B15D00023BB720B
S31510000CE00BE0BB7A7A68134493F820301A46FB68F7
S31510000CF01344FB60BB7A0133BB72BB7A032BF0D96A
S31510000D00FB7A043BFB7214E00023BB720BE0BB7A48
S31510000D107A68134493F820301A46FB681344FB6034
S31510000D20BB7A0133BB72BB7A012BF0D9FB7A023B3B
S31510000D30FB720023BB720BE0BB7A7A68134493F8FC
S31510000D4040301A46FB681344FB60BB7A0133BB7212
S31510000D50BA7AFB7A013B9A4202DAFB7A212BEBD95B
S31510000D60FB687B727B7ADB437B727B6893F860301F
S31510000D707A7A9A4201D1412300E045231846143766
S31510000D80BD465DF8047B704780B500AF054B1B78F8
S31510000D90012B00D004E004484121FFF797FA00BF69
S31510000DA080BD00BF1400002000B0064080B500AF23
S31510000DB0054B1B78012B00D004E004484521FFF7B2
S31510000DC085FA00BF80BD00BF1400002000B00640A9
S31510000DD080B500AF044B1B78012B00D003E003480D
S31510000DE0FFF78AFA00BF80BD1400002000B006404D
S31510000DF090B585B000AF786000237B730023FB733A
S31510000E005848FFF74DFA03467B737B7B532B03D071
S31510000E1054484521FFF75AFA7B7B532BF0D15148A2
S31510000E20FFF73EFA03461A467B681A704D48FFF7DD
S31510000E3037FA0346FB737B68FA7B5A707B681B781C
S31510000E40322B0CBF01230023DAB27B681B78362BBA
S31510000E500CBF01230023DBB21343DBB21A467B68B7
S31510000E601B78382B0CBF01230023DBB21343002B56
S31510000E7016D00023BB730CE0BC7B3A48FFF710FA80
S31510000E8003461A467B68234483F82020BB7B013334
S31510000E90BB73BB7B022BEFD9FB7B033BFB733EE0A3
S31510000EA07B681B78332B0CBF01230023DAB27B68D7
S31510000EB01B78372B0CBF01230023DBB21343DBB2A5
S31510000EC0002B16D00023BB730CE0BC7B2548FFF724
S31510000ED0E7F903461A467B68234483F82020BB7B38
S31510000EE00133BB73BB7B032BEFD9FB7B043BFB733B
S31510000EF015E00023BB730CE0BC7B1A48FFF7D0F952
S31510000F0003461A467B68234483F82020BB7B0133B3
S31510000F10BB73BB7B012BEFD9FB7B023BFB7300231F
S31510000F20BB730CE0BC7B0F48FFF7BAF903461A46B1
S31510000F307B68234483F84020BB7B0133BB73BA7BA9
S31510000F40FB7B013B9A4202DAFB7B212BEAD905484F
S31510000F50FFF7A6F903461A467B6883F86020143714
S31510000F60BD4690BD00B0064080B400AF054A054BA3
S31510000F70D3F8043343F40073C2F80433BD465DF866
S31510000F80047B70470040064080B400AF044A044B0F
S31510000F90D3F80433C2F80433BD465DF8047B7047BA
S31510000FA00040064080B400AF084B094A5A60074B10
S31510000FB05B68064B42F220121A60044B4FF6FF7222
S31510000FC09A60BD465DF8047B704700BF002005405F
S31510000FD020C528D980B48FB000AF394B3B63394B4D
S31510000FE03B62394B7B61394BFB62394BFB61394BA9
S31510000FF03B61394BBB62394BFB60394B7B62394BDA
S31510001000BB61394BBB6009E03B6A1A783B6B1A70BF
S315100010103B6B01333B633B6A01333B627A693B6A44
S315100010209A42F1D109E0FB691A78FB6A1A70FB6AD9
S315100010300133FB62FB690133FB613A69FB699A4232
S31510001040F1D105E0BB6A00221A70BB6A0133BB629C
S31510001050FA68BB6A9A42F5D109E0BB691A787B6ACD
S315100010601A70BB690133BB617B6A01337B62BA6854
S31510001070BB699A42F1D10023FB711C4A1C4B9A4260
S3151000108016D000237B630AE0194A7B6B52F82320A3
S3151000109016497B6B41F823207B6B01337B63154B21
S315100010A09B087A6B9A42EFD3134B104A1A6002E0F0
S315100010B0114B0F4A1A603C37BD465DF8047B7047EA
S315100010C00084FF1F00130010001300100084FF1F80
S315100010D000130010541300100000002058040020C4
S315100010E00000002054130010541300100080FF1F3E
S315100010F0000000000004000008ED00E00B4C08B5ED
S31510001100054600F09DF800F07FF8236813B1984764
S3151000111000232360064C236813B1984700232360ED
S315100011202846BDE8084000F089B800BF1C00002022
S315100011302000002010B5044600F002F8204610BD2D
S31510001140C9B21F2A10B50C4630D9434213F0030317
S3151000115006D0D21A034400F8011B9842FBD100E0D6
S31510001160034631B10C0444EA01640C4344EA0124F9
S3151000117000E00C4651090DD003EB41111C605C6078
S315100011809C60DC601C615C619C6120338B4243F87F
S31510001190044CF3D1C2F3820129B103EB810143F868
S315100011A0044B8B42FBD102F00302184622B10244D3
S315100011B000F8014B9042FBD110BD000010B50C4C4D
S315100011C00C4B9C4203D054F8043B9847F8E70A4C62
S315100011D00A4B9C4203D054F8043B9847F8E7084C56
S315100011E0084B9C4203D054F8043B9847F8E710BDCF
S315100011F0001300100013001000130010001300104D
S31510001200001300100013001010B5084C084B9C4238
S3151000121003D054F8043B9847F8E7064C064B9C421B
S3151000122003D054F8043D9847F8E710BD001300109A
S31510001230001300100013001000130010FEE700004A
S31510001240044B10B51C6824B16368A06898472468DD
S31510001250F9E710BD24000020064B1846002807D0D9
S31510001260854681B04FF000006FEA0000009001B093
S31510001270F746704700700020F7467047F7467047EC
S3151000128088421DD0E2B140EA010313F0030F07D1E3
S31510001290032A05D951F8043B40F8043B043AF1E718
S315100012A0DB0707D4012A05D931F8023B20F8023BA7
S315100012B0023AE7E711F8013B00F8013B013AE1E792
S315100012C07047000010B5084C6CB1216829B16068F0
S315100012D0A268FFF7D5FF0C34F7E76368002BF6D149
S315100012E0A368002BF3D110BD000000000000000021
S315100012F0000008000000001000000014FFFFFFFFB0
S3151000130080B584B000AF7860114A114B1B78DBB200
S3151000131063F07F03DBB2137007E07B689B69B3F160
S31510001320FF3F02D07B689B699847094B1B78DBB25D
S31510001330DBB25BB2002BF0DA054B1B78DBB29BB24B
S3151000134003F07103FB81FB8918461037BD4680BD3B
S309100013500000024041
S70510000001E9
