S01A0000626F6F746C6F616465725F6170705F6231302E737265631D
S1132000007000201124000051240000512400001D
S1132010512400005124000051240000000000005D
S11320200000000000000000000000005124000037
S1132030512400000000000051240000512400003D
S113204051240000512400005124000051240000B8
S113205051240000512400005124000051240000A8
S11320605124000051240000512400005124000098
S11320705124000051240000512400005124000088
S11323F0512400005124000051240000FFFFFFFF7E
S1132400FFFFFFFFFFFFFFFFFFFFFFFFFE7FFFFF59
S113241072B60B490A4A0A4B094C094D084E084F3B
S1132420B846B946BA46BB46BC4606488546064841
S113243080470648804762B600F0E8FAFEE70000ED
S11324400000000000700020E5600000D55F00007F
S1132450FFF7FEBF53B94AB9002908BF00281CBFC3
S11324604FF0FF314FF0FF3000F03CB882B0EC4643
S11324702DE9005000F01EF8DDF804E002B00CBCB9
S1132480704700BF2DE9F041069C154606460F46ED
S1132490984600F029F805FB01F300FB0838A5FB7A
S11324A00023B21A434467EB0303C4E90023BDE8E5
S11324B0F08100BF2DE9F041069C904606460F4688
S11324C01D4600F05FF900FB05F5A0FB082308FB9F
S11324D00155B21A2B4467EB0303C4E90023BDE89A
S11324E0F08100BF704700BF00292DE9F043C0F21E
S11324F0A6800026002BC0F29C80884694469E4607
S1132500154604460F46002B3DD18A4259D9B2FAEA
S113251082F33BB1C3F120029F4020FA02F29D40B6
S113252017439C40290C220CB7FBF1FEA8B201FB17
S11325301E7742EA074700FB0EF3BB420AD97F1914
S11325400EF1FF3280F00581BB4240F20281AEF110
S1132550020E2F44FF1AA4B2B7FBF1F301FB137769
S113256044EA074700FB03F0B84208D97F1903F196
S1132570FF3280F0F080B84240F2ED80023B43EA43
S11325800E43002203E08B420FD900221346341C71
S113259018BF012460424FF0000565EB4501584027
S11325A0514000196941BDE8F083B3FA83F2002A6F
S11325B040F086808B4202D3844500F2DB80012305
S11325C0E5E712B90123B3FBF2F5B5FA85F000286B
S11325D03BD1781B4FEA154E1FFA85FC0122B0FB54
S11325E0FEF8210C0EFB180741EA07470CFB08F321
S11325F0BB4207D97F1908F1FF3102D2BB4200F276
S1132600BD808846FF1AA4B2B7FBFEF30EFB137716
S113261044EA07470CFB03FCBC4507D97F1903F1C7
S1132620FF3102D2BC4500F2A7800B4643EA0843BF
S1132630ADE752426FEA060663EB43035DE74042AF
S113264061EB41014FF0FF3654E7C0F1200224FA58
S113265002F107FA00F385404FEA154ED7401943BB
S1132660B7FBFEF20B0C0EFB12771FFA85FC43EA54
S113267007430CFB02F79F4204FA00F407D95B19E5
S113268002F1FF3074D29F4272D9023A2B44DF1B0D
S113269089B2B7FBFEF80EFB187341EA03430CFB47
S11326A008F79F4208D95B1908F1FF315CD29F42B9
S11326B05AD9A8F102082B44D81B48EA02428EE7F3
S11326C0C2F120032CFA03F10EFA02FE20FA03F7FA
S11326D041EA0E0E08FA02F028FA03F14FEA1E4509
S11326E03843B1FBF5F8030C05FB18111FFA8EF7FC
S11326F043EA014107FB08F38B420CFA02FC09D9B7
S113270011EB0E0108F1FF3930D28B422ED9A8F11A
S113271002087144C91A80B2B1FBF5F305FB131129
S113272040EA014107FB03F78F4208D911EB0E0180
S113273003F1FF3016D28F4214D9023B714443EAAD
S11327400843C91BA3FB0C89494509D305D00022C2
S11327501DE79646FEE6134611E794404445F6D23B
S1132760013BF4E70346EAE78846A5E7C846D1E714
S113277002468CE713460AE7023B57E7A8F1020832
S11327802F443FE72DE9F041002B44D18A421546FE
S113279004464FD9B2FA82F70E464FB1C7F120036F
S11327A0B94020FA03F602FA07F50E4300FA07F4DB
S11327B04FEA154E230CB6FBFEF0AFB20EFB1061D0
S11327C043EA014307FB00F1994209D95B1900F17F
S11327D0FF3280F0EC80994240F2E98002382B44C9
S11327E05A1AA4B2B2FBFEF30EFB132244EA0242CD
S11327F007FB03F7974208D9521903F1FF3180F020
S1132800D880974240F2D580023B43EA004000263C
S11328103146BDE8F0818B4247D8B3FA83F6002EE7
S113282048D18B4202D3824200F2CD80012031464E
S1132830BDE8F08112B90125B5FBF2F5B5FA85F8CA
S1132840B8F1000F77D14A1B4FEA154EAFB20126FB
S1132850B2FBFEF0230C0EFB102143EA014107FBFF
S113286000F38B4207D9491900F1FF3202D28B429F
S113287000F2BA801046C91AA4B2B1FBFEF30EFBF3
S1132880131144EA014407FB03F7A74208D964196A
S113289003F1FF3280F08F80A74240F28C80023B2C
S11328A043EA00403146BDE8F08100263046314617
S11328B0BDE8F081C6F1200422FA04F5B3402B43AD
S11328C020FA04FC01FA06F721FA04F54FEA134E44
S11328D04CEA0707B5FBFEF8390C0EFB18551FFA36
S11328E083FC41EA05450CFB08F1A94202FA06F211
S11328F004D9ED1808F1FF3467D3A0466D1ABFB2AE
S1132900B5FBFEF40EFB145547EA05410CFB04FC31
S11329108C4504D9C91804F1FF355CD32C4644EA2C
S11329200844CCEB0101A4FB0223994248D344D0D0
S1132930204600266CE7C8F1200401FA08F305FAE2
S113294008F520FA04F7E1404FEA154E1F43B1FBA6
S1132950FEF63A0C0EFB16111FFA85FC42EA0143FF
S11329600CFB06F29A4200FA08F407D95B1906F147
S1132970FF3137D29A4235D9023E2B449B1ABFB25B
S1132980B3FBFEF00EFB103347EA03430CFB00F1EC
S1132990994207D95B1900F1FF3221D299421FD91C
S11329A002382B445A1A40EA0646674650E7104656
S11329B016E70B4629E7134672E7B0409042B7D2B8
S11329C0601E002624E7304622E7A94295D9A8F1E3
S11329D002081D4492E78C45A0D9023C19449EE7A5
S11329E01046DFE70E46C9E70238294443E700BF33
S11329F080B500AF0020012100F04AFD02484FF4E9
S1132A00C03100F0A9F980BDC0F00F4080B500AF1F
S1132A101B4801211B4A002300F0C2FD00200021B5
S1132A2000F0E0FD0020184900F0C2FB0020002166
S1132A30164A00F0E9FB5920154900F04DF91548F4
S1132A404FF4C03100F070F912484FF4803100F0B7
S1132A5077F930201049002200F02AFD302000F0E0
S1132A6049FD0020012100F061FC0C4B1B68002B88
S1132A7000D000E0F9E7094B1B68184680BD00BF91
S1132A80A88DFF1F1C0000203C620000F88CFF1F73
S1132A90A084FF1FC0F00F40F129000000000020B7
S1132AA080B487B000AFF860B9601346FB71FB686F
S1132AB01B687B61BB68012202FA03F3DB437A697A
S1132AC013407B61FA79BB6802FA03F37A69134312
S1132AD07B61FB687A691A601C37BD465DF8047B2C
S1132AE0704700BF80B586B000AF78607B681B6814
S1132AF07A68526853F822307B617B681B7A012B19
S1132B0009D0022B10D0002B00D016E07B6923F0F3
S1132B1002037B6111E07B6923F001037B617B6924
S1132B2043F002037B6108E07B6943F002037B61AD
S1132B307B6943F001037B6100BF7B6923F01003D1
S1132B407B617B685B7A1B0103F010037A69134392
S1132B507B617B6923F040037B617B689B7A9B01EB
S1132B6003F040037A6913437B617B6923F4E063D8
S1132B707B617B68DB7A1B0203F4E0637A691343AD
S1132B807B617B6923F400437B617B681B7BDB03F4
S1132B909BB27A6913437B617B6923F470237B6165
S1132BA07B685B7B1B0403F470237A6913437B61AA
S1132BB07B689B7B002B07D07B6923F080737B6150
S1132BC07B6943F080737B617B681B687A68526819
S1132BD0796943F822107B681B68D3F8C030FB6026
S1132BE07B685B681A4601239340DB43FA68134011
S1132BF0FB607B685B7D1A467B685B6802FA03F3C3
S1132C00FA681343FB607B681B68FA68C3F8C0204A
S1132C107B68DB7A012B30D17B681B695B693B6184
S1132C207B681B7D002B02D0012B0AD012E07B684D
S1132C305B681A4601239340DB433A6913403B61C6
S1132C4008E07B685B681A46012393403A691343A2
S1132C503B6100BF7B681B693A695A617B681B7DD5
S1132C60012B0AD17B6819697B685A687B689B7D54
S1132C70084611461A46FFF713FF00231846183773
S1132C80BD4680BD80B483B000AF786039607B6896
S1132C903A685A600C37BD465DF8047B704700BF44
S1132CA080B483B000AF786039607B683A689A601A
S1132CB00C37BD465DF8047B704700BF80B483B019
S1132CC000AF786039607B683A68DA600C37BD46DB
S1132CD05DF8047B704700BF80B584B000AF7860B6
S1132CE0396000237B810023FB6014E0FA681346FB
S1132CF05B001344DB001A463B6813441846FFF795
S1132D00F1FE03463B813B89002B01D03B897B814B
S1132D10FB680133FB60FA687B689A42E6D37B89DF
S1132D2018461037BD4680BD80B582B000AF7860CC
S1132D30396078683968FFF7A5FF0837BD4680BD5C
S1132D4080B582B000AF7860396078683968FFF781
S1132D50A7FF0837BD4680BD80B582B000AF78605C
S1132D60396078683968FFF7A9FF0837BD4680BD28
S1132D7080B483B000AF78607B689B6843F0010245
S1132D807B689A600C37BD465DF8047B704700BFD2
S1132D9080B483B000AF78607B689B6843F0020224
S1132DA07B689A607B689B6823F002027B689A6068
S1132DB00C37BD465DF8047B704700BF80B483B018
S1132DC000AF786039607B685A693B681A437B6856
S1132DD05A610C37BD465DF8047B704780B485B0FA
S1132DE000AFF860B9607A60FA68BB6802331B010F
S1132DF013447A681A601437BD465DF8047B704743
S1132E0080B483B000AF786039607B681A693B682E
S1132E101A437B681A610C37BD465DF8047B704722
S1132E2080B483B000AF786039607B681A693B680E
S1132E30DB431A407B681A610C37BD465DF8047B9E
S1132E40704700BF80B483B000AF786039607B689E
S1132E503A68DA607B68DB680C37BD465DF8047B52
S1132E60704700BF80B485B000AFF860B960134606
S1132E70FB71FA68BB681B01134428331B6823F0F9
S1132E800C02F968BB681B010B4428331A60FA680A
S1132E90BB681B01134428331A68FB799B0003F0B9
S1132EA00C031A43F968BB681B010B4428331A60EE
S1132EB01437BD465DF8047B704700BF80B485B00D
S1132EC000AF786039607A683B681B01134428338B
S1132ED01B6803F00C039B08BB60BB68032B17D86B
S1132EE001A252F823F000BFF92E0000FF2E0000CB
S1132EF0052F00000B2F00000023FB730BE00123C0
S1132F00FB7308E00223FB7305E00323FB7302E079
S1132F100023FB7300BFFB7B18461437BD465DF8E6
S1132F20047B704780B485B000AFF860B9607A6004
S1132F30FA68BB681B01134428331B6823F07062D2
S1132F40F968BB681B010B4428331A60FA68BB6834
S1132F501B01134428331A687B681B0603F0706353
S1132F601A43F968BB681B010B4428331A601437F1
S1132F70BD465DF8047B704780B485B000AFF8604F
S1132F80B9601346FB71FA68BB681B01134428330C
S1132F901B6823F40002F968BB681B010B44283347
S1132FA01A60FA68BB681B01134428331A68FB795A
S1132FB0DB0503F400031A43F968BB681B010B44E7
S1132FC028331A601437BD465DF8047B704700BF90
S1132FD080B485B000AFF860B9601346FB71FA683D
S1132FE0BB681B01134428331B6823F48022F9684F
S1132FF0BB681B010B4428331A60FA68BB681B01C9
S1133000134428331A68FB79002B02D04FF4802331
S113301000E000231A43F968BB681B010B44283302
S11330201A601437BD465DF8047B704780B485B0E0
S113303000AFF860B9601346FB71FA68BB681B0106
S1133040134428331B6823F40032F968BB681B015E
S11330500B4428331A60FA68BB681B0113442833F5
S11330601A68FB79002B02D04FF4003300E00023F0
S11330701A43F968BB681B010B4428331A601437E0
S1133080BD465DF8047B704780B485B000AFF8603E
S1133090B9601346FB71FA68BB681B0113442833FB
S11330A01B6823F48032F968BB681B010B44283386
S11330B01A60FA68BB681B01134428331A68FB7949
S11330C0002B02D04FF4803300E000231A43F96848
S11330D0BB681B010B4428331A601437BD465DF8E6
S11330E0047B704780B485B000AFF860B9601346C4
S11330F0FB71FA68BB681B01134428331B6823F077
S11331000202F968BB681B010B4428331A60FA6891
S1133110BB681B01134428331A68FB79002B01D0C8
S1133120022300E000231A43F968BB681B010B4427
S113313028331A601437BD465DF8047B704700BF1E
S113314080B483B000AF78600B46FB707B689B68EB
S113315023F008027B689A607B689A68FB78002BEE
S113316001D0082300E000231A437B689A600C37DF
S1133170BD465DF8047B704780B483B000AF7860CF
S11331800B46FB707B689B6823F004027B689A60A3
S11331907B689A68FB78002B01D0042300E00023AD
S11331A01A437B689A600C37BD465DF8047B704710
S11331B080B584B000AF7860396045217B689B009E
S11331C00F4A13440846194601F0B8FF0346FB8131
S11331D00C4BBB60B868FFF7DBFDB868FFF7C8FDB0
S11331E03B681B78B8681946FFF7AAFF3B685B7811
S11331F0B8681946FFF7C0FF1037BD4680BD00BF51
S1133200040000200070034080B588B000AFF8606F
S1133210B9607A600023FB83424A07F11403106803
S11332201860414BBB61BB68002B06D17B68DB7C1B
S1133230002B02D00123FB836FE07B68DB7CB86941
S1133240B9681A46FFF74EFF7B681B78B869B968FE
S11332501A46FFF707FE7B685B78012B09D17B6870
S11332605B68F868B9681A4600F070F80346FB8397
S113327006E07B685B68F868B9681A4600F0F6F8FF
S1133280FB8B002B49D17B681B7AB869B9681A4655
S1133290FFF772FE7B68DB68B869B9681A46FFF706
S11332A041FE7B681B7CB869B9681A46FFF790FE3B
S11332B07B685B7CB869B9681A46FFF7B7FE7B6820
S11332C09B7CB869B9681A46FFF7DEFE7B681B7DF4
S11332D0002B11D0BB68012202FA03F3B869194626
S11332E0FFF78EFD07F11402BB6813441B785BB231
S11332F0184600F0FFF810E0BB68012202FA03F35D
S1133300B8691946FFF78CFD07F11402BB68134432
S11333101B785BB2184600F005F9FB8B1846203782
S1133320BD4680BD146100000070034080B584B0C8
S113333000AF78603960044BFB60F8683968FFF7C8
S11333403DFD1037BD4680BD00700340F0B58DB023
S113335000AFF860B9607A600023FB854521FB6803
S11333609B003E4A13440846194601F0E7FE034613
S1133370FB833B4BBB617B6818464FF00001374A27
S1133380FB6852F823301A464FF0000302FB01FE9B
S113339000FB03F67644A0FB0223F1180B46C7E9B1
S11333A00823C7E90823D7E90823104619462D4AFC
S11333B04FF00003FFF74EF802460B4612F1FF32BE
S11333C043F1FF33C7E90823B869B968FFF776FD0D
S11333D00346FB75D7E90823012B08BF002A2DD229
S11333E0FB7D012B2CD1D7E908231F484FF00001A6
S11333F0994208BF904202D20123FB8520E0D7E91D
S113340008234FF6FF704FF00001994208BF904225
S113341016D2D7E90823B2F5803243F1FF331D04F5
S113342045EA124514044FF6FF724FF0000342EAD6
S1133430040243EA0503C7E9082301E00123FB85ED
S1133440FB8D002B05D13B6AB869B9681A46FFF7B2
S1133450C5FCFB8D18463437BD46F0BD0400002082
S11334600070034040420F00FEFF010080B586B0AB
S113347000AFF860B9607A60044B7B617869B96821
S11334807A68FFF7ABFC1837BD4680BD0070034077
S113349080B584B000AF78603960044BFB60F86895
S11334A03968FFF7CFFC1037BD4680BD007003407C
S11334B080B485B000AF0346B9607A60FB737B6863
S11334C0002B08D097F90F301033094A52F82330F3
S11334D01A467B681A6097F90F301033BA680449AA
S11334E041F823201437BD465DF8047B704700BFC4
S11334F00080FF1F80B483B000AF0346FB7108490E
S113350097F907305B09FA7902F01F02012000FAEB
S113351002F241F823200C37BD465DF8047B704766
S113352000E100E080B483B000AF0346FB710949B9
S113353097F907305B09FA7902F01F02012000FABB
S113354002F2203341F823200C37BD465DF8047B9A
S1133550704700BF00E100E080B400AF084B1B6877
S1133560002B09DD064B1B68013B054A1360044B25
S11335701B68002B00DC62B6BD465DF8047B704717
S11335800800002080B400AF72B6044B1B680133FE
S1133590024A1360BD465DF8047B704708000020B2
S11335A080B485B000AFF8607A601A460B46FB72AF
S11335B01346BB720A4AFB681360094AFB7A13710B
S11335C0074A7B689360064ABB7A1373044ABB7A42
S11335D05373002318461437BD465DF8047B7047C7
S11335E00C00002080B586B000AF03460A46FB718C
S11335F01346BB710023BB82FB793B73BB797B739E
S1133600FFF7C0FF554B1A7B544B5A730123BB730E
S11336100023FB7526E0514B9A68FB7D9B00134405
S11336201B683B613B69002B19D03B691B79022B5A
S113363015D03B691B683A69926807F10C0108468A
S1133640114698470346002B09D0444AFB7D537327
S113365040F20313BB82BB79002B00D107E0FB7D52
S11336600133FB753D4B1B7BFA7D9A42D3D3BB8A56
S1133670002B02D0BB79012B14D1384B1A68FB798B
S11336809B0013441B68184601F05AF80346BB829A
S1133690BB8A002B0CBF01230023BB752F4AFB7987
S11336A0537101E00023BB75BB7D002B32D0022394
S11336B0BB730023FB7527E0284B9A68FB7D9B00B6
S11336C013441B683B613B69002B1AD03B691B798F
S11336D0012B16D03B691B683A69926807F10C010B
S11336E00846114698470346002B0AD01B4AFB7D27
S11336F053734FF48273BB82BB79002B01D100BF9B
S113370025E0FB7D0133FB75144B1B7BFA7D9A424C
S1133710D2D31CE00023BB73104B9A68FB7D9B0043
S113372013441B683B613B69002B08D03B691B6851
S11337303A69926807F10C01084611469847FB7DE7
S1133740002B00D103E0FB7D013BFB75E4E7FFF7B1
S113375003FFBB8A18461837BD4680BD0C00002005
S113376080B483B000AF78607B681B6903F03003DA
S11337701B0918460C37BD465DF8047B704700BF33
S113378080B487B000AFF8607B600B46FB721346D1
S1133790BB72FB681B697B617B6923F03F037B6120
S11337A0FB7A002B01D0012300E000237A69134344
S11337B07B61BB7A002B01D0022300E000237A69ED
S11337C013437B617B689B0003F00C037A6913430A
S11337D07B613B6A1B0103F030037A6913437B610D
S11337E0FB687A691A611C37BD465DF8047B704733
S11337F080B485B000AF78600B46FB707B681B6CAF
S1133800FB60FB6823F01003FB60FB78002B01D006
S1133810102300E00023FA681343FB607B68FA6816
S11338201A641437BD465DF8047B704780B485B0D4
S113383000AF78607B681B6CFB60FB6803F01003CF
S11338401B09FB60FB68002B14BF01230023DBB2C0
S113385018461437BD465DF8047B704780B485B0C4
S113386000AF78600B46FB707B681B6CFB60FB68E9
S113387023F00803FB60FB78002B01D0082300E051
S11338800023FA681343FB607B68FA681A641437F0
S1133890BD465DF8047B704780B485B000AF7860A6
S11338A07B681B6CFB60FB6803F00803DB08FB60B0
S11338B0FB68002B14BF01230023DBB21846143726
S11338C0BD465DF8047B704780B485B000AF786076
S11338D00B46FB707B681B6CFB60FB6823F00403E6
S11338E0FB60FB78002B01D0042300E00023FA687E
S11338F01343FB607B68FA681A641437BD465DF8AD
S1133900047B704780B485B000AF78607B681B6C23
S1133910FB60FB6803F004039B08FB60FB68002B5F
S113392014BF01230023DBB218461437BD465DF8EB
S1133930047B704780B485B000AF78600B46FB70A1
S11339407B681B6CFB60FB6823F00203FB60FB7865
S1133950002B01D0022300E00023FA681343FB602C
S11339607B68FA681A641437BD465DF8047B7047B7
S113397080B485B000AF78607B681B6CFB60FB682B
S113398003F002035B08FB60FB68002B14BF0123F8
S11339900023DBB218461437BD465DF8047B70473C
S11339A080B485B000AF78600B46FB707B681B6CFD
S11339B0FB60FB6823F00103FB60FB78002B01D064
S11339C0012300E00023FA681343FB607B68FA6874
S11339D01A641437BD465DF8047B704780B485B023
S11339E000AF78607B681B6CFB60FB6803F001032D
S11339F0FB60FB68002B14BF01230023DBB21846D5
S1133A001437BD465DF8047B704700BF80B483B0B3
S1133A1000AF78607B68DB6803F040731B0E1846C8
S1133A200C37BD465DF8047B704700BF80B483B09B
S1133A3000AF78607B68DB6803F040639B0E184638
S1133A400C37BD465DF8047B704700BF80B483B07B
S1133A5000AF78607B68DB6803F040531B0F1846A7
S1133A600C37BD465DF8047B704700BF80B483B05B
S1133A7000AF78607B68DB689B0F18460C37BD4647
S1133A805DF8047B704700BF80B483B000AF7860FA
S1133A907B681B6903F002035B08002B14BF01233E
S1133AA00023DBB218460C37BD465DF8047B704733
S1133AB080B483B000AF78607B681B6903F00103B6
S1133AC0002B14BF01230023DBB218460C37BD467C
S1133AD05DF8047B704700BF80B483B000AF7860AA
S1133AE07B681B6903F00C039B0818460C37BD4622
S1133AF05DF8047B704700BF80B483B000AF78608A
S1133B007B685B6803F40063DB0A002B14BF0123AA
S1133B100023DBB218460C37BD465DF8047B7047C2
S1133B2080B483B000AF78607B685B6803F4E063C3
S1133B301B0A18460C37BD465DF8047B704700BF6E
S1133B4080B483B000AF78607B685B6803F0F003F7
S1133B501B0918460C37BD465DF8047B704700BF4F
S1133B6080B487B000AFF8607A603B600B46FB72AC
S1133B70FB685B687B617B6923F47F637B61FB7A11
S1133B80002B02D04FF4006300E000237A69134352
S1133B907B617B681B01DBB27A6913437B613B6801
S1133BA01B0203F4E0637A6913437B61FB687A695F
S1133BB05A601C37BD465DF8047B704780B485B0FD
S1133BC000AF786039607B685B68FB60FB6823F456
S1133BD08053FB603B681B0303F48053FA68134370
S1133BE0FB607B68FA685A601437BD465DF8047B55
S1133BF0704700BF80B483B000AF78607B689B6E71
S1133C007B6800229A660C37BD465DF8047B7047DA
S1133C1080B485B000AFF8607A603B600B46FB72FD
S1133C20FB7A002B02D04FF0805200E000227B6828
S1133C305B0003F00E031A433B6803F001031A43CD
S1133C40FB689A661437BD465DF8047B704700BF75
S1133C5080B483B000AF78607B681B6A03F0706344
S1133C601B0E18460C37BD465DF8047B704700BF39
S1133C7080B483B000AF78607B681B6903F0706325
S1133C801B0E18460C37BD465DF8047B704700BF19
S1133C9080B483B000AF78607B681B6903F4702341
S1133CA01B0C18460C37BD465DF8047B704700BFFB
S1133CB080B483B000AF78607B681B6903F0F003C5
S1133CC01B0918460C37BD465DF8047B704700BFDE
S1133CD080B483B000AF78607B681B6903F00F0386
S1133CE018460C37BD465DF8047B704780B487B036
S1133CF000AFF860B9607A603B60BB681B0603F0F4
S1133D0070627B681B0403F470231A433B681B0135
S1133D10DBB21A433B6A03F00F0313437B61FB6876
S1133D207A695A611C37BD465DF8047B704700BF51
S1133D3080B487B000AFF860B9607A603B60BB685C
S1133D401B0603F070627B681B0403F470231A43A0
S1133D503B681B01DBB21A433B6A03F00F031343B6
S1133D607B61FB687A699A611C37BD465DF8047B08
S1133D70704700BF80B487B000AFF860B9607A6064
S1133D803B60BB681B0603F070627B681B0403F492
S1133D9070231A433B681B01DBB21A433B6A03F0EE
S1133DA00F0313437B61FB687A69DA611C37BD46F4
S1133DB05DF8047B704700BF80B483B000AF7860C7
S1133DC07B68D3F8043303F0070318460C37BD4669
S1133DD05DF8047B704700BF80B483B000AF7860A7
S1133DE07B68D3F8043303F4E0631B0A18460C37EA
S1133DF0BD465DF8047B704780B487B000AFF860BF
S1133E00B9607A60BB6803F007027B681B0203F4A5
S1133E10E06313437B61FB687A69C3F804231C37AE
S1133E20BD465DF8047B704780B483B000AF786012
S1133E307B68D3F8043203F0070318460C37BD46F9
S1133E405DF8047B704700BF80B483B000AF786036
S1133E507B68D3F8043203F4E0631B0A18460C377A
S1133E60BD465DF8047B704780B487B000AFF8604E
S1133E70B9607A60BB6803F007027B681B0203F435
S1133E80E06313437B61FB687A69C3F804221C373F
S1133E90BD465DF8047B704780B483B000AF7860A2
S1133EA07B68D3F8043103F0070318460C37BD468A
S1133EB05DF8047B704700BF80B483B000AF7860C6
S1133EC07B68D3F8043103F4E0631B0A18460C370B
S1133ED0BD465DF8047B704780B487B000AFF860DE
S1133EE0B9607A60BB6803F007027B681B0203F4C5
S1133EF0E06313437B61FB687A69C3F804211C37D0
S1133F00BD465DF8047B704780B483B000AF786031
S1133F107B68D3F8043603F0070318460C37BD4614
S1133F205DF8047B704700BF80B483B000AF786055
S1133F307B68D3F8043603F4E0631B0A18460C3795
S1133F40BD465DF8047B704780B487B000AFF8606D
S1133F50B9607A60BB6803F007027B681B0203F454
S1133F60E06313437B61FB687A69C3F804261C375A
S1133F70BD465DF8047B704780B485B000AF7860BF
S1133F8039607B681B6AFB60FB6823F07063FB602D
S1133F903B681B0603F07063FA681343FB607B689D
S1133FA0FA681A621437BD465DF8047B704700BF97
S1133FB080B485B000AF78607B68D3F80032FB60D2
S1133FC0FB6803F000735B0EFB60FB68002B14BFFF
S1133FD001230023DBB218461437BD465DF8047B89
S1133FE0704700BF80B483B000AF78607B68D3F8BB
S1133FF0003203F080731B0E002B14BF0123002337
S1134000DBB218460C37BD465DF8047B704700BF31
S113401080B483B000AF78607B68D3F8083203F0D3
S1134020010318460C37BD465DF8047B704700BF9A
S113403080B483B000AF78607B68D3F8003223F497
S113404000027B68C3F800220C37BD465DF8047B90
S1134050704700BF80B483B000AF78607B680022F3
S1134060C3F800220C37BD465DF8047B704700BFDF
S113407080B483B000AF78600B46FB70FB7803F02C
S113408001027B68C3F808220C37BD465DF8047B47
S1134090704700BF80B485B000AF78600846114611
S11340A01A460346FB700B46BB7013467B70FB78C5
S11340B0002B01D0032200E00122BB78002B01D0A9
S11340C0042300E000231A437B78002B02D04FF432
S11340D0000300E000231343FB607B68FA68C3F825
S11340E000221437BD465DF8047B704780B485B068
S11340F000AF78607B68D3F80033FB60FB6803F0A3
S113410000735B0EFB60FB68002B14BF01230023CC
S1134110DBB218461437BD465DF8047B704700BF18
S113412080B483B000AF78607B68D3F8003303F0C9
S113413080731B0E002B14BF01230023DBB218462F
S11341400C37BD465DF8047B704700BF80B483B074
S113415000AF78607B68D3F8083303F00303184694
S11341600C37BD465DF8047B704700BF80B483B054
S113417000AF78607B68D3F8003323F400027B68D7
S1134180C3F800230C37BD465DF8047B704700BFBD
S113419080B483B000AF78607B684FF08062C3F86E
S11341A000230C37BD465DF8047B704780B483B0B0
S11341B000AF78600B46FB70FB7803F003027B686A
S11341C0C3F808230C37BD465DF8047B704700BF75
S11341D080B485B000AF78600B46FB701346BB70AB
S11341E0FB78002B01D0092200E00122BB78002BD0
S11341F002D04FF4000300E000231343FB607B680C
S1134200FA68C3F800231437BD465DF8047B704791
S113421080B485B000AF78607B68D3F80031FB6070
S1134220FB6803F000735B0EFB60FB68002B14BF9C
S113423001230023DBB218461437BD465DF8047B26
S1134240704700BF80B483B000AF78607B68D3F858
S1134250003103F080731B0E002B14BF01230023D5
S1134260DBB218460C37BD465DF8047B704700BFCF
S113427080B483B000AF78607B68D3F8003123F456
S113428000027B68C3F800210C37BD465DF8047B4F
S1134290704700BF80B483B000AF78607B684FF094
S11342A08062C3F800210C37BD465DF8047B70477B
S11342B080B485B000AFF860B9607A603B60BB68D9
S11342C01B0103F030027B68DB0003F008031A4390
S11342D03B689B0003F004031A43FB68C3F80821FE
S11342E01437BD465DF8047B704700BF80B485B0C9
S11342F000AF7860084611461A460346FB700B4629
S1134300BB7013467B70FB78002B02D04FF0011278
S113431000E00122BB78002B02D04FF4003300E010
S113432000231A437B78002B02D04FF4000300E0F3
S113433000231343FB607B68FA68C3F80021143739
S1134340BD465DF8047B704780B485B000AF7860EB
S11343507B68D3F80036FB60FB6803F000735B0EE8
S1134360FB60FB68002B14BF01230023DBB218465B
S11343701437BD465DF8047B704700BF80B483B03A
S113438000AF78607B68D3F8003603F080731B0EAF
S1134390002B14BF01230023DBB218460C37BD46A3
S11343A05DF8047B704700BF80B483B000AF7860D1
S11343B07B68D3F8083603F4E0631B0A18460C370D
S11343C0BD465DF8047B704780B483B000AF78606D
S11343D07B68D3F8083603F4F8131B0C18460C3723
S11343E0BD465DF8047B704780B483B000AF78604D
S11343F07B68D3F8003623F400027B68C3F80026F8
S11344000C37BD465DF8047B704700BF80B483B0B1
S113441000AF78607B684FF08062C3F800260C37E9
S1134420BD465DF8047B704780B483B000AF78600C
S11344300B46FB701346BB70FB781B0203F4E0626F
S1134440BB781B0403F4F8131A437B68C3F80826EB
S11344500C37BD465DF8047B704700BF80B485B05F
S113446000AF7860084611461A460346FB700B46B7
S1134470BB7013467B70FB78002B02D04FF0011207
S113448000E00122BB78002B02D04FF4003300E09F
S113449000231A437B78002B02D04FF4000300E082
S11344A000231343FB607B68FA68C3F800261437C3
S11344B0BD465DF8047B704780B487B000AFF860F8
S11344C07B600B46FB721346BB727B681B0603F0D2
S11344D0E0627B6ADB0003F008031A433B6A03F0E3
S11344E007031A43BB7A002B02D04FF0804300E04D
S11344F0002313437B61FB7A064A32F813301946D2
S1134500FB687A6943F821201C37BD465DF8047BBB
S1134510704700BF1861000080B483B000AF7860BA
S11345200B46FB701346BB70BB78002B12D0FB7894
S1134530144A32F813301946FB78124A32F8133011
S11345401A467B6853F8223043F080427B6843F874
S1134550212011E0FB780B4A32F813301946FB781E
S1134560084A32F813301A467B6853F8223023F095
S113457080427B6843F821200C37BD465DF8047BFC
S1134580704700BF1861000080B485B000AF786048
S11345900B46FB70FB780C4A32F813301A467B68E2
S11345A053F82230FB60FB6803F080439B0FFB60F1
S11345B0FB68002B14BF01230023DBB21846143719
S11345C0BD465DF8047B70471861000080B483B079
S11345D000AF78600B46FB70FB78084A32F8133062
S11345E01A467B6853F8223003F0E0631B0E18462A
S11345F00C37BD465DF8047B704700BF18610000AE
S113460080B483B000AF78600B46FB70FB78084A37
S113461032F813301A467B6853F8223003F008034B
S1134620DB0818460C37BD465DF8047B704700BFB5
S11346301861000080B483B000AF78600B46FB7053
S1134640FB78074A32F813301A467B6853F8223055
S113465003F0070318460C37BD465DF8047B70472A
S11346601861000080B485B000AF78600B46FB7021
S11346707B689B78FB73FB7B03F07F03FB73FB7806
S113468083F00103DBB2DB01DAB2FB7B1343FB7380
S11346907B68FA7B9A701437BD465DF8047B7047DB
S11346A080B485B000AF78607B689B78FB73FB7B3C
S11346B0DB09FB73FB7B002B0CBF01230023DBB264
S11346C018461437BD465DF8047B704780B485B046
S11346D000AF78600B46FB70FB78FB7397F90F30E3
S11346E0002B06DA2023BB73FA7BBB7B1344DBB2BB
S11346F0FB73FB7B7B737B681B793B733B7B23F0F6
S11347001F033B737B7B03F01F03DAB23B7B134332
S1134710DBB23B737B683A7B1A711437BD465DF894
S1134720047B704780B483B000AF78607B685B69BA
S1134730DBB218460C37BD465DF8047B704700BFFA
S113474080B5A2B000AF78607B68C7F884307B681E
S1134750002B08D107F10803184600F081F907F18E
S11347600803C7F88430D7F88430184600F020F8DE
S11347700346A7F88230B7F88230002B11D1D7F85E
S113478084306C33184600F06DF8D7F88430443325
S1134790184600F0C1F8D7F884307433184600F096
S11347A045F9B7F8823018468837BD4680BD00BF4A
S11347B080B584B000AF78600023FB817B68002B58
S11347C046D001F07DF80346FB81FB89002B04D120
S11347D0786801F0A3F80346FB81FB89002B37D1ED
S11347E07B6893F83030002B03D07B68DB6A1B4A6C
S11347F013607B6893F83530002B06D07B6893F800
S1134800343017481946FFF7B7FB7B6893F84330F9
S1134810002B1DD07B6836330120194601F0B4F912
S11348200346FB81FB89002B07D17B683A330220C6
S1134830194601F0A9F90346FB81FB89002B07D136
S11348407B683E330320194601F09EF90346FB8141
S1134850FB8918461037BD4680BD00BF24000020E8
S113486000400640F0B587B002AF78607B68002B4B
S11348704DD07B685B68002B49D00023FB6041E08E
S11348807B685968FA6813469B0013440B441B78F1
S1134890204819460022FFF73FFE7B685968FA68F2
S11348A013469B0013440B441D787B685968FA68CF
S11348B013469B0013440B445C787B685968FA6880
S11348C013469B0013440B449B781E467B6859682F
S11348D0FA6813469B0013440B441B7918467B6803
S11348E05968FA6813469B0013440B44DB78009024
S11348F001930848294622463346FFF7DDFDFB684D
S11349000133FB607B681A68FB689A42B8D8143795
S1134910BD46F0BD0050064090B587B002AF786048
S11349207B681B78002B0BD07B685A787B689B785C
S11349301C467B68DB783B4811462246FFF710F99A
S11349407B681B79002B0DD07B68197A7B68DA7938
S11349507B689B791C467B685B79009331482346CE
S1134960FEF70EFF7B681B7F002B1FD07B685B7FED
S11349702C481946FFF714F87B689B7F2948194691
S1134980FEF7D8FF7B68DB7F26481946FEF79CFFBD
S11349907B6893F8203023481946FEF75FFF7B6855
S11349A093F821301F481946FEF722FF7B681B7BD2
S11349B0002B15D00023FB730FE0FB7B022B09D8DF
S11349C0FA7BFB7B796802339B000B449B68164996
S11349D041F82230FB7B0133FB73FB7B022BECD9C8
S11349E07B6893F82230002B18D00E48FFF702F9A9
S11349F07B6893F824300B481946FFF7DFF87B688F
S1134A0093F823207B6893F825301C467B6893F841
S1134A102630044811462246FFF7FAF81437BD46FB
S1134A2090BD00BF008004402800002080B582B003
S1134A3000AF78607B681B78002B0CD07B685B78B8
S1134A4006481946FFF70EFE7B689B785BB2034865
S1134A501946FFF73BFE0837BD4680BD00D007402E
S1134A6080B483B000AF78607B680122DA707B6821
S1134A7000221A717B6801225A717B6800229A71A4
S1134A807B6801221A707B6801225A707B680122BC
S1134A909A707B6801229A737B6801221A737B687F
S1134AA000225A737B680022DA717B6801221A7231
S1134AB07B6801225A727B68012283F830207B686C
S1134AC00022DA627B6801225A777B68754A1A6190
S1134AD07B6800221A757B6800221A777B680122A2
S1134AE05A757B6800229A757B680222DA757B68A6
S1134AF001221A767B6801225A767B68012283F8A8
S1134B0028207B68002283F820207B68002283F819
S1134B1027207B68002283F821207B680C2283F8FD
S1134B2022207B68002283F823207B68012283F8FB
S1134B3024207B68012283F825207B68012283F8E6
S1134B4035207B68032283F834207B68012283F8B4
S1134B5043207B68032283F839207B68002283F892
S1134B6038207B68012283F837207B68012283F890
S1134B7036207B68022283F83D207B68012283F87B
S1134B803C207B68002283F83B207B68032283F867
S1134B903A207B68062283F841207B68002283F850
S1134BA040207B68012283F83F207B68032283F83E
S1134BB03E207B683C4A1A677B682022DA667B6861
S1134BC0012283F844207B68002283F845207B6817
S1134BD0002283F846207B68002283F847207B6804
S1134BE0012283F848207B68012283F84C207B68EB
S1134BF0012283F84B207B68002283F84A207B68DB
S1134C00002283F849207B68012283F860207B68B6
S1134C10012283F861207B68012283F862207B688B
S1134C20012283F863207B68012283F864207B6877
S1134C30012283F865207B68012283F86B207B685E
S1134C40012283F850207B6800225A657B68002289
S1134C509A657B680022DA657B68012283F8662006
S1134C607B68012283F867207B68002283F8682030
S1134C707B68002283F869207B68002283F86A201D
S1134C807B68012283F874207B68012283F87520F5
S1134C907B68002283F876200C37BD465DF8047BE0
S1134CA0704700BF00127A000084FF1F80B584B0F3
S1134CB000AF03463960FB710023FB810023BB6016
S1134CC0FB79112B00F2838001A252F823F000BF7C
S1134CD0194D0000234D00002D4D0000374D0000FC
S1134CE03F4D0000474D00004F4D0000574D000060
S1134CF05F4D0000674D00006F4D00007B4D0000CC
S1134D00874D0000934D00009F4D0000AB4D000007
S1134D10B74D0000C34D0000002000F0D5FEB86080
S1134D2058E0012000F0D0FEB86053E0022000F00B
S1134D30CBFEB8604EE000F0EDFAB8604AE001F056
S1134D4099F8B86046E001F0B7F8B86042E001F0C5
S1134D5079F8B8603EE001F0CDF8B8603AE0234B52
S1134D601B68BB6036E000F043FBB86032E004200F
S1134D70002100F0D9FFB8602CE00420012100F0EC
S1134D80D3FFB86026E00520002100F0CDFFB86015
S1134D9020E00520012100F0C7FFB8601AE00620DA
S1134DA0002100F0C1FFB86014E00620012100F0EA
S1134DB0BBFFB8600EE00720002100F0B5FFB8602B
S1134DC008E00720012100F0AFFFB86002E00423EF
S1134DD0FB8100BF3B68002B02D03B68BA681A60B5
S1134DE0FB8918461037BD4680BD00BF2400002053
S1134DF080B586B000AF03463960FB710023FB82A7
S1134E0000233B61FB79153B0E2B00F2E38001A2EA
S1134E1052F823F0514E00006D4E0000894E000000
S1134E20A54E0000C14E0000C94E0000D14E000046
S1134E30E74E00000D4F0000334F0000494F0000C3
S1134E40654F0000814F00009D4F0000B94F0000E6
S1134E506748FEF7DBFDF860FB68022B05D8654A5E
S1134E60FB6852F823303B61B7E0B6E06048FEF7D8
S1134E70DDFDF860FB68022B05D85E4AFB6852F83A
S1134E8023303B61A9E0A8E05948FEF7DFFDF86054
S1134E90FB68022B05D8574AFB6852F823303B6164
S1134EA09BE09AE05248FEF7E1FDF860FB68022BB4
S1134EB005D8504AFB6852F823303B618DE08CE002
S1134EC000F028FA386188E000F0CCFA386184E018
S1134ED04948FFF7E5FB0346002B03D001F03CF8FB
S1134EE038617AE079E04448FFF7DAFB0346002BA7
S1134EF00BD03F48FEF7DCFD0346002B02D04FF4F5
S1134F007A7300E000233B6167E066E03A48FFF70C
S1134F10C7FB0346002B0BD03548FEF7B5FD03460F
S1134F20002B02D04FF4FA4300E000233B6154E02D
S1134F3053E03148FFF7B4FB0346002B03D04FF492
S1134F40FA333B6149E048E02948FEF76FFC034629
S1134F5083F00103DBB2002B03D04FF48073FB8298
S1134F603BE03AE02248FEF797FC034683F0010356
S1134F70DBB2002B03D04FF48073FB822DE02CE0D6
S1134F801B48FEF7BFFC034683F00103DBB2002B92
S1134F9003D04FF48073FB821FE01EE01448FEF739
S1134FA0E7FC034683F00103DBB2002B03D04FF48C
S1134FB08073FB8211E010E00D48FEF70FFD0346FD
S1134FC083F00103DBB2002B03D04FF48073FB8228
S1134FD003E002E00423FB8200BF3B68002B02D005
S1134FE03B683A691A60FB8A18461837BD4680BD8B
S1134FF0008004402800002000D0074080B584B021
S113500000AF03463960FB710023FB810023BB60C2
S1135010FB79242B0ED9FB79332B0BD0FB79392B5D
S113502008D0FB793B2B05D0FB79402B02D0FB79D0
S11350304D2B02D10423FB8170E0FB793D481946D6
S1135040FFF7A2FA034683F00103DBB2002B03D07F
S11350504FF48073FB8161E0FB79374AD35C03F042
S11350602003002B0BD0012000F02EFD0346002B63
S113507002D14FF4807300E00023FB8124E0FB792C
S11350802D4AD35C03F04003002B0BD0002000F02A
S11350901BFD0346002B02D14FF4807300E0002374
S11350A0FB8111E0FB79244AD35CDBB25BB2002BB9
S11350B00ADA022000F008FD0346002B02D14FF467
S11350C0807300E00023FB81FB89002B26D1FB7950
S11350D0194AD35C03F01803002B1FD0FB79164A3E
S11350E0D35C03F00803002B05D0FB79184600219C
S11350F000F052F8B860FB790F4AD35C03F0100358
S1135100002B05D0FB791846012100F045F8B86062
S1135110BB68002B02D14FF48073FB813B68002BEA
S113512002D03B68BA681A60FB8918461037BD463E
S113513080BD00BF00500640B861000080B584B057
S113514000AF03463960FB71FB79112B07D8FB795B
S113515018463968FFF7AAFD0346FB8117E0FB797F
S1135160232B07D8FB7918463968FFF741FE03461D
S1135170FB810CE0FB794D2B07D8FB791846396885
S1135180FFF73CFF0346FB8101E00423FB81FB891D
S113519018461037BD4680BD80B586B000AF0346C3
S11351A00A46FB711346BB7100237B61FB792F48D0
S11351B01946FFF725FA3861FB792C481946FFF7A1
S11351C039FAF8603A69FB689A424AD8FB79274869
S11351D01946FFF7D9F90346002B42D0FB7923483F
S11351E01946FFF7F3F90346013B052B2AD801A220
S11351F052F823F00D5200001B5200002952000007
S1135200455200004552000037520000BB79062089
S1135210194600F089FD786117E0BB79042019462E
S113522000F082FD786110E0BB790520194600F09A
S11352307BFD786109E0BB790720194600F074FD15
S1135240786102E000237B6100BFFB6801337A6967
S1135250B2FBF3F37B613B695A1C7B6902FB03F3EA
S11352607B617B6918461837BD4680BD00500640F7
S113527080B582B000AF0E48FFF754FA0346042B02
S11352800AD0802B02D0012B03D008E00323FB714A
S113529008E00123FB7105E00223FB7102E0042313
S11352A0FB7100BFFB7918460837BD4680BD00BFBF
S11352B000E0074080B586B000AF78600023FB8231
S11352C0FFF7D6FF0346FB73FB7B1846796800F0B3
S11352D05BFC0346FB82FB8A002B14D10A233B614F
S11352E03B69013B3B610A48FEF7C2FC02467B680E
S11352F0DB789A4202D03B69002BF1D13B69002B49
S113530001D10323FB82FB8A18461837BD4680BDB2
S11353100040064080B582B000AF3448FEF7ECFB95
S11353200346002B5BD03148FEF70AFC03460E2BE4
S113533048D801A252F823F075530000C553000069
S11353407D530000C553000089530000C55300007D
S113535095530000C5530000A1530000C55300003D
S1135360AD530000C5530000B5530000C553000001
S1135370BD53000000F03CF8786026E006200121CF
S113538000F0D2FC786020E00420012100F0CCFC85
S113539078601AE00520012100F0C6FC786014E072
S11353A00720012100F0C0FC78600EE04FF4FA33CE
S11353B07B600AE000F0D0FD786006E000F052F86F
S11353C0786002E000237B6000BF0848FEF7A8FB7A
S11353D0034601337A68B2FBF3F37B6001E00023F8
S11353E07B607B6818460837BD4680BD008004405A
S11353F080B582B000AF1A48FEF72AFC0346062B9C
S113540025D801A252F823F0255400002F5400009F
S1135410375400003F5400004F5400004F54000024
S113542047540000022000F04FFB786012E000F0C7
S113543009FD78600EE000F01DFD78600AE000F0E0
S11354403BFD786006E000F055FD786002E0002343
S11354507B6000BF7B6818460837BD4680BD00BF2F
S11354600040064080B582B000AF1A48FEF778F9D4
S11354700346032B26D801A252F823F08D540000D2
S113548099540000B1540000B954000006200021D2
S113549000F04AFC786018E00E48FEF7F5FA03467F
S11354A0002B02D04FF4FA4300E000237B600CE0B1
S11354B0094B1B687B6008E00520002100F034FCE8
S11354C0786002E000237B6000BF7B6818460837E1
S11354D0BD4680BD008004402400002080B588B013
S11354E000AF03463960FB710023FB833B68002B4C
S11354F00FD100233B7401237B740023BB7401236D
S11355007B730123BB7301233B7307F10C03BB6162
S113551001E03B68BB612348FEF74AFD0346002BCC
S113552002D00223FB8305E01E48FEF781FD1D48DF
S1135530FEF790FDFB79002B2ED0FB8B002B2BD19B
S1135540BB695B781A46BB699B78164811461A46B4
S1135550FEF78AFCBB691B7812481946FEF788FDE2
S1135560BB691979BB695A79BB699B790D48FEF708
S113557091FD64237B6102E07B69013B7B6100F068
S113558079FC0346002B02D17B69002BF4D17B69A3
S1135590002B01D10323FB83FB8B18462037BD4628
S11355A080BD00BF0040064080B588B000AF034610
S11355B03960FB710023FB833B68002B11D100236E
S11355C0FB7300233B7401237B740023BB7401230E
S11355D07B730123BB7300233B7307F10C03BB6193
S11355E001E03B68BB612348FEF780FD0346002BC6
S11355F002D00223FB8305E01E48FEF7B7FD1D48D9
S1135600FEF7C6FDFB79002B2ED0FB8B002B2BD194
S1135610BB695B781A46BB699B78164811461A46E3
S1135620FEF7EAFBBB691B7812481946FEF7BEFD7C
S1135630BB695A79BB699B790E4811461A46FEF735
S1135640C7FD14237B6102E07B69013B7B6100F0B1
S113565033FC0346002B02D17B69002BF4D17B6918
S1135660002B01D10323FB83FB8B18462037BD4657
S113567080BD00BF0040064080B58AB000AF03463D
S11356803960FB710023FB843B68002B15D1002398
S1135690BB750023FB7500233B7400233B76012379
S11356A03B7501237B7500237B740023BB740123AA
S11356B0FB7407F10C033B6201E03B683B62354835
S11356C0FEF7A6FD0346002B02D00223FB8408E06C
S11356D03048FEF7CDFD2F48FEF7DCFD2E4B0022AF
S11356E01A60FB79002B4FD0FB8C002B4CD13B6A0A
S11356F01B7A1A463B6A5B7A264811461A46FEF71D
S1135700EBFB3B6ADB7919463B6A9B791A463B6A99
S11357105B792048FEF7CCFD3B6A1B79012B0CD04A
S1135720022B12D0002B00D017E03B6A1B7B1948D8
S113573000210022FEF7DAFD0FE03B6A1B7B1548CF
S113574001210022FEF7D2FD07E03B6A1B7B1148D2
S113575001210122FEF7CAFD00BF3B6A1B680E4A05
S113576013600E4BFB6102E0FB69013BFB6100F03F
S113577069FB0346002B02D1FB69002BF4D1FB69C2
S1135780002B01D10323FB84FB8C18462837BD462C
S113579080BD00BF004006402000002088E73000A4
S11357A080B58AB000AF03463960FB710023FB84E7
S11357B03B68002B13D10023BB7400233B730023ED
S11357C0FB7401233B7401237B7400237B7300234C
S11357D0BB730023FB7307F10C033B6201E03B68DE
S11357E03B623648FEF7B0FD0346002B02D002238D
S11357F0FB8405E03148FEF7F7FD3048FEF706FE6E
S1135800FB79002B54D0FB8C002B51D100F01AFBF8
S1135810B8613B6A5B780133BA69B2FBF3F3BB61ED
S11358203B6A1B791A463B6A5B79244811461A463F
S1135830FEF78AFB3B6A5A783B6A9B781F481146FD
S11358401A46FEF7F1FD3B6A1B78012B0CD0022BA4
S113585012D0002B00D017E03B6ADB7917480021F7
S11358600022FEF7FBFD0FE03B6ADB7913480121C0
S11358700022FEF7F3FD07E03B6ADB790F480121C4
S11358800122FEF7EBFD00BF4FF47A73FB6102E0E7
S1135890FB69013BFB6100F02DFB0346002B02D1A9
S11358A0FB69002BF4D1FB69002B01D10323FB849A
S11358B0FB8C18462837BD4680BD00BF004006401B
S11358C080B582B000AF0023FB801348FEF7D0F907
S11358D00346032B1BD000F0EFFA0346002B05D13F
S11358E001200021FFF760FE0346FB80FB88002BAC
S11358F00DD10323FB700023BB7001237B700323B2
S11359003B703B461846FFF7D5FC0346FB80FB88FB
S113591018460837BD4680BD0040064080B586B0B5
S113592000AF78600023FB827B68DA787B681046DE
S11359301946FFF7D3FD0346FB82FB8A002B17D1E0
S11359407B685A7F7B68103310461946FFF794FE34
S11359500346FB82FB8A002B0AD17B6893F828203C
S11359607B68203310461946FFF71AFF0346FB8273
S1135970FFF77EFC0346022B07D0032B09D0012B33
S11359800BD17B6836333B610AE07B683A333B6179
S113599006E07B683E333B6102E000233B6100BFCD
S11359A0FB8A002B40F08A803B69DB78032B65D1AE
S11359B00123FB827B6893F82830002B0ED006234A
S11359C0FB730223BB7301237B7301233B7307F136
S11359D00C031846FFF76EFC0346FB827B685B7F73
S11359E0002B11D0FB8A012B0ED10123FB73002362
S11359F0BB7301237B7301233B7307F10C0318462C
S1135A00FFF758FC0346FB827B68DB78002B11D040
S1135A10FB8A012B0ED10223FB730023BB730023EB
S1135A207B7300233B7307F10C031846FFF742FC1A
S1135A300346FB82FB8A002B40D17B689A7B7B6800
S1135A40073310461946FFF7AFFD0346FB82FB8A76
S1135A50002B33D13B69DB78FB733B699B78BB73C9
S1135A603B695B787B733B691B783B7307F10C03E1
S1135A701846FFF71FFC0346FB821FE03B69DB78F7
S1135A80FB733B699B78BB733B695B787B733B69B6
S1135A901B783B7307F10C031846FFF70BFC034616
S1135AA0FB82FB8A002B09D17B689A7B7B680733D6
S1135AB010461946FFF778FD0346FB82FB8A184619
S1135AC01837BD4680BD00BF80B584B000AF034623
S1135AD0FB712C48FEF7CCF80346013B052B1FD87D
S1135AE001A252F823F000BF015B0000095B000033
S1135AF0115B0000215B0000215B0000195B0000CA
S1135B0000F0A0F9F8600EE000F0B4F9F8600AE0E3
S1135B1000F0D2F9F86006E000F0ECF9F86002E079
S1135B200023FB6000BF1748FEF7B2F803460133B9
S1135B30FA68B2FBF3F3FB60FB79012B04D0022B70
S1135B400CD0002B17D013E00E48FEF7B1F8034633
S1135B500133FA68B2FBF3F3FB600DE00948FEF78A
S1135B60B7F803460133FA68B2FBF3F3FB6003E0D2
S1135B700023FB6000E000BFFB6818461037BD46F9
S1135B8080BD00BF0040064090B58BB002AF034615
S1135B903960FB710023FB830023BB6100237B611D
S1135BA03B689B7801333B613B689B7801333A68DF
S1135BB05278013202FB03F3FB603B689B780133AC
S1135BC03A681278013202FB03F3BB603B68DB786E
S1135BD0013B052B1ED801A252F823F0F55B00000F
S1135BE0FD5B0000055C0000155C0000155C000016
S1135BF00D5C000000F026F9B8610EE000F03AF9FF
S1135C00B8610AE000F058F9B86106E000F072F9F2
S1135C10B86102E00023BB6100BFFB79022B07D00F
S1135C20032B08D0012B00D008E001237B6105E0A1
S1135C3000237B6102E002237B6100BF38497A695B
S1135C4013465B0013449B000B441B683A6902FB38
S1135C5003F2BB699A421DD331497A6913465B004A
S1135C6013449B000B4404331B68FA6802FB03F2E1
S1135C70BB699A420ED32A497A6913465B001344DE
S1135C809B000B4408331B68BA6802FB03F2BB6930
S1135C909A4201D20123FB83FB8B002B3AD1FB797F
S1135CA0022B15D0032B24D0012B00D032E03B680B
S1135CB0DB7819463B689B781A463B685B781C4640
S1135CC03B681B78009317482346FEF70FF821E042
S1135CD03B68DB7819463B689B781A463B685B78DF
S1135CE01C463B681B7800930E482346FEF720F8B9
S1135CF010E03B68DB7819463B689B781A463B68A2
S1135D005B781C463B681B78009306482346FEF7E5
S1135D1031F800BFFB8B18462437BD4690BD00BF49
S1135D20086200000040064080B584B000AF03461E
S1135D300A46FB711346BB710023BB60BB79002B81
S1135D4002D0012B34D067E0FB79043B032B2BD822
S1135D5001A252F823F000BF795D0000695D0000E4
S1135D60895D0000995D000000F0A6F8F8603448F1
S1135D70FEF722F8B8601AE000F07CF8F8603048CA
S1135D80FEF752F8B86012E000F05CF8F8602C48B6
S1135D90FEF782F8B8600AE000F0ACF8F860284832
S1135DA0FEF7B2F8B86002E00023FB6000BF36E003
S1135DB0FB79043B032B2BD801A252F823F000BF3C
S1135DC0E15D0000D15D0000F15D0000015E0000B6
S1135DD000F072F8F8601A48FDF7FEFFB8601AE0A8
S1135DE000F048F8F8601648FEF72EF8B86012E0A4
S1135DF000F028F8F8601248FEF75EF8B8600AE090
S1135E0000F078F8F8600E48FEF78EF8B86002E00B
S1135E100023FB6000BF02E00023FB6000BFBB68FF
S1135E20002B06D0BB68013B1A46FB68D340FB60DD
S1135E3001E00023FB60FB6818461037BD4680BDB7
S1135E400040064080B582B000AF0848FEF7FAF97A
S1135E500346002B03D0064B1B687B6001E0002344
S1135E607B607B6818460837BD4680BD004006400D
S1135E702000002080B582B000AF0C48FEF7B2F8D5
S1135E800346002B0AD00948FEF7C2F80346002B4C
S1135E9001D0074B00E0074B7B6001E000237B60EF
S1135EA07B6818460837BD4680BD00BF00400640E9
S1135EB000127A0080841E0080B582B000AF0B48C7
S1135EC0FEF72EF90346002B08D00848FEF73EF9EA
S1135ED00246074B53F822307B6001E000237B60CD
S1135EE07B6818460837BD4680BD00BF00400640A9
S1135EF02C62000080B582B000AF1648FEF73EFA6F
S1135F000346002B1ED0FFF79DFF78607B68002BB3
S1135F1015D01048FEF748FA034601337A68B2FBFD
S1135F20F3F37B600B48FEF74FFA034603F11002CC
S1135F307B6802FB03F37B607B685B087B607B68A8
S1135F403B6001E000233B603B6818460837BD46D0
S1135F5080BD00BF0040064080B582B000AF002382
S1135F607B601B48FDF7B8FD0346032B29D801A22B
S1135F7052F823F0855F00008D5F0000935F0000FE
S1135F80AB5F00004FF4FA337B601BE000237B60BF
S1135F9018E00F48FDF778FD0346002B02D04FF4BC
S1135FA0FA4300E000237B600CE00948FDF76CFD38
S1135FB00346002B02D04FF4FA4300E000237B6039
S1135FC000E000BF7B6818460837BD4680BD00BFAF
S1135FD00080044080B48DB000AF364B7B60364BFC
S1135FE0BB62364BFB61364B7B61364B7B62364B77
S1135FF0BB61364B3B61364B3B62364BFB60002347
S1136000FB72354A354B9A421CD00023FB620AE0EE
S1136010324AFB6A52F823202F49FB6A41F82320B5
S1136020FB6A0133FB622E4B9B08FA6A9A42EFD358
S1136030FB7A9B0007F13002134453F82C3C264AA8
S11360401A6008E0FB7A9B0007F13002134453F80E
S11360502C3C224A1A6009E0FB691A78BB6A1A7060
S1136060BB6A0133BB62FB690133FB617A69FB697B
S11360709A42F1D109E0BB691A787B6A1A707B6A8B
S113608001337B62BB690133BB613A69BB699A42E4
S1136090F1D105E03B6A00221A703B6A01333B628E
S11360A0FA683B6A9A42F5D13437BD465DF8047B01
S11360B0704700BF08ED00E00084FF1F4862000045
S11360C0F46B0000AC8DFF1FF46B0000F46B000058
S11360D000000020340000200080FF1F002000008A
S11360E00004000080B400AF084B094A5A60074B13
S11360F05B68064B42F220121A60044B4FF6FF72A3
S11361009A60BD465DF8047B704700BF00200540DF
S113611020C528D9303132330000000000000000CF
S1136120000000000000000000000000000000006B
S1136130000000000000000000000000000000005B
S1136140000000000000000000000000000000004B
S1136150000000000000000000000000000000003B
S11361600000000000000000000073003200210065
S1136170610049004A004B004C004D003D00000006
S1136180240025002B003600310000002000000010
S1136190380039003A00260000003B0027005A006E
S11361A0660037002C002D002E0040006A006B00B2
S11361B06C0000000000000000000000000000006F
S11361C000000000000000000000000000000000CB
S11361D00000000000000041414141410000000076
S11361E0002020202020202020202000404040406B
S11361F0400080004848484800303030303030306B
S1136200303630303000000000093D0000093D0008
S113621040420F0000B4C404005A6202B0F3960175
S113622000FCAC06007E5603003FAB01006CDC02B0
S113623000751903007E56030087930300000000D5
S10B6240A8C2FF7F0100000069
S11362484101020000420102000029010000002A65
S1136258010000002B010000002C010000003401A3
S1136268000000350100000036010000004301026F
S113627800003A010000003C010200003D01020058
S1136288003E010200003F01020000440102000038
S113629845010200004601020000470102000048CF
S11362A80102000049010200004A010200004B01FA
S11362B80200004C01020000370100000038010010
S11362C800002D010000002E010000002F01000035
S11362D8003001000000310100000032010000001C
S11362E800D004401000000000000000000000007E
S11362F8000000000000000000D004400F0000006F
S11363080000000000000000000000000000000081
S113631800C004400100000000000000000000006C
S1136328000000000000000000C00440000000005D
S11363380000000000000000000000000000000051
S113634800D004400B000000000000000000000022
S1136358000000000000000000D004400A00000013
S11363680000000000000000000000000000000021
S113637800D004400D0000000000000000000000F0
S1136388000000000000000000D0044005000000E8
S113639800000000000000000000000000000000F1
S11363A800D00440040000000000000000000000C9
S11363B8000000000000000000A0044007000000E6
S11363C800000000000000000000000000000000C1
S11363D800A00440060000000000000000000000C7
S11363E8000000000000000000D004400E0000007F
S11363F80000000000000000000000000000000091
S113640800D0044003000000000000000000000069
S1136418000000000000000000D004400C00000050
S11364280000000000000000000000000000000060
S113643800C004401100000000000000000000003B
S1136448000000000000000000C00440100000002C
S11364580000000100000000C0F00F40010000002F
S113646800C004400F00000000000001000000000C
S1136478C0F00F400100000000D0044009000000F3
S11364880000000000000000000000000000000000
S113649800C004400E0000000000000000000000DE
S11364A8000000000000000000C004400D000000CF
S11364B800000000000000000000000000000000D0
S11364C800D00440080000000000000000000000A4
S11364D8000000000000000000A0044005000000C7
S11364E800000000000000000000000000000000A0
S11364F800A00440040000000000000000000000A8
S1136508000000000000000000B004400300000088
S1136518000000000000000000000000000000006F
S113652800B0044002000000000000000000000069
S1136538000000000000000000C004400700000044
S1136548000000000000000000000000000000003F
S113655800C0044006000000000000000000000025
S1136568000000000000000000C004400500000016
S1136578000000000000000000000000000000000F
S113658800C004400C0000000000000000000000EF
S1136598000000000000000000C004400B000000E0
S11365A800000000000000000000000000000000DF
S11365B800C004400A0000000000000000000000C1
S11365C8000000000000000000B0044001000000CA
S11365D800000000000000000000000000000000AF
S11365E800B00440000000000000000000000000AB
S11365F8000000000000000000C004400900000082
S1136608000000000000000000000000000000007E
S113661800C0044008000000000000000000000062
S1136628000000000000000000B004401100000059
S1136638000000000000000000000000000000004E
S113664800B004401000000000000000000000003A
S1136658000000000000000000B004400F0000002B
S1136668000000000000000000000000000000001E
S113667800B004400E00000000000000000000000C
S1136688000000000000000000A004400300000017
S113669800000000000000000000000000000000EE
S11366A800A00440020000000000000000000000F8
S11366B8000000000000000000B004400D000000CD
S11366C800000000000000000000000000000000BE
S11366D800B004400C0000000000000000000000AE
S11366E8000000000000000000B004400B0000009F
S11366F8000000000000000000000000000000008E
S113670800B004400A00000000000000000000007F
S1136718000000000000000000A004400100000088
S1136728000000000000000000000000000000005D
S113673800A0044000000000000000000000000069
S1136748000000000000000000B004400900000040
S1136758000000000000000000000000000000002D
S113676800B0044008000000000000000000000021
S11367780000000000000000009004400700000032
S113678800000000000000000000000000000000FD
S11367980090044006000000000000000000000013
S11367A8000000000000000000D0044007000000C2
S11367B800000000000000000000000000000000CD
S11367C800900440110000000000000000000000D8
S11367D8000000000000000000A0044011000000B8
S11367E8000000000000000000000000000000009D
S11367F800A0044010000000000000000000000099
S1136808000000000000000000A004400F00000089
S1136818000000000000000000000000000000006C
S113682800A004400E00000000000000000000006A
S1136838000000000000000000A004400D0000005B
S1136848000000000000000000000000000000003C
S113685800A004400C00000000000000000000003C
S1136868000000000000000000C004400400000014
S1136878000000000000000000000000000000000C
S113688800C00440030000000000000000000000F5
S1136898000000000000000000C0044002000000E6
S11368A800000000000000000000000000000000DC
S11368B800900440030000000000000000000000F5
S11368C800000000000000000090044002000000E6
S11368D800000000000000000000000000000000AC
S11368E800A004400B0000000000000000000000AD
S11368F8000000000000000000A004400A0000009E
S1136908000000000000000000000000000000007B
S113691800A004400900000000000000000000007E
S1136928000000000000000000A00440080000006F
S1136938000000000000000000000000000000004B
S11369480090044001000000000000000000000066
S11369580000000000000000009004400000000057
S1136968000000000000000000000000000000001B
S113697800B0044007000000000000000000000010
S1136988000000000000000000B004400600000001
S113699800000000000000000000000000000000EB
S11369A800900440100000000000000000000000F7
S11369B80000000000000000009004400F000000E8
S11369C800000000000000000000000000000000BB
S11369D800D0044006000000000000000000000091
S11369E8000000000000000000D004400200000085
S11369F8000000000000000000000000000000008B
S1136A08009004400E000000000000000000000098
S1136A180000000000000000009004400D00000089
S1136A28000000000000000000000000000000005A
S1136A38009004400C00000000000000000000006A
S1136A480000000000000000009004400B0000005B
S1136A58000000000000000000000000000000002A
S1136A68009004400A000000000001070000000034
S1136A78000000000000000000D0044001000000F5
S1136A8800000000000000000000000000000000FA
S1136A9800D00440000000000000000000000000D6
S1136AA8000000000000000000B0044005000000E1
S1136AB802000007000000000000000000000000C1
S1136AC800B00440040000000100000700000000BA
S1136AD800000000000000000090044005000000D1
S1136AE80201000700000000000000000000000090
S1136AF800900440040000000200000700000000A9
S1136B08000000000000000000900440090000009C
S1136B180000000000000000000000000000000069
S1136B28009004400800000000000000000000007D
S1136B3800000000000000000001000040420F00B7
S1136B480000000000000000000000000100000038
S1136B5845010300002D010000002E010000002F54
S1136B6801000000300100000031010000000000B5
S1136B7801010101010100000101000001000100FF
S1136B8800127A0000010002010100000001000067
S1136B9800000C00010100000100000000000000DA
S1136BA801000000030101010003030001020301C5
S1136BB800060001010000000100000101000000BE
S1136BC801000000000000000000000000000000B8
S1136BD8010101010101010100000000060000009B
S1136BE8108DFF1F01010000308DFF1FFFFFFFFF05
S9032411C7
